{
	"contracts/FundMe.sol": {
		"FundMe": {
			"abi": [
				{
					"inputs": [],
					"name": "fund",
					"outputs": [],
					"stateMutability": "payable",
					"type": "function"
				},
				{
					"inputs": [
						{
							"internalType": "uint256",
							"name": "",
							"type": "uint256"
						}
					],
					"name": "funders",
					"outputs": [
						{
							"internalType": "address",
							"name": "",
							"type": "address"
						}
					],
					"stateMutability": "view",
					"type": "function"
				},
				{
					"inputs": [
						{
							"internalType": "uint256",
							"name": "ethAmount",
							"type": "uint256"
						}
					],
					"name": "getConversionRate",
					"outputs": [
						{
							"internalType": "uint256",
							"name": "",
							"type": "uint256"
						}
					],
					"stateMutability": "view",
					"type": "function"
				},
				{
					"inputs": [],
					"name": "getPrice",
					"outputs": [
						{
							"internalType": "uint256",
							"name": "",
							"type": "uint256"
						}
					],
					"stateMutability": "view",
					"type": "function"
				},
				{
					"inputs": [],
					"name": "getVersion",
					"outputs": [
						{
							"internalType": "uint256",
							"name": "",
							"type": "uint256"
						}
					],
					"stateMutability": "view",
					"type": "function"
				},
				{
					"inputs": [],
					"name": "minimumUsd",
					"outputs": [
						{
							"internalType": "uint256",
							"name": "",
							"type": "uint256"
						}
					],
					"stateMutability": "view",
					"type": "function"
				}
			],
			"devdoc": {
				"kind": "dev",
				"methods": {},
				"version": 1
			},
			"evm": {
				"assembly": "    /* \"contracts/FundMe.sol\":216:1387  contract FundMe {... */\n  mstore(0x40, 0x80)\n    /* \"contracts/FundMe.sol\":267:276  50 * 1e18 */\n  0x02b5e3af16b1880000\n    /* \"contracts/FundMe.sol\":239:276  uint256 public minimumUsd = 50 * 1e18 */\n  0x00\n  sstore\n    /* \"contracts/FundMe.sol\":216:1387  contract FundMe {... */\n  callvalue\n  dup1\n  iszero\n  tag_1\n  jumpi\n  0x00\n  dup1\n  revert\ntag_1:\n  pop\n  dataSize(sub_0)\n  dup1\n  dataOffset(sub_0)\n  0x00\n  codecopy\n  0x00\n  return\nstop\n\nsub_0: assembly {\n        /* \"contracts/FundMe.sol\":216:1387  contract FundMe {... */\n      mstore(0x40, 0x80)\n      jumpi(tag_1, lt(calldatasize, 0x04))\n      shr(0xe0, calldataload(0x00))\n      dup1\n      0x098de820\n      eq\n      tag_2\n      jumpi\n      dup1\n      0x0d8e6e2c\n      eq\n      tag_3\n      jumpi\n      dup1\n      0x6e5b6b28\n      eq\n      tag_4\n      jumpi\n      dup1\n      0x98d5fdca\n      eq\n      tag_5\n      jumpi\n      dup1\n      0xb60d4288\n      eq\n      tag_6\n      jumpi\n      dup1\n      0xdc0d3dff\n      eq\n      tag_7\n      jumpi\n    tag_1:\n      0x00\n      dup1\n      revert\n        /* \"contracts/FundMe.sol\":239:276  uint256 public minimumUsd = 50 * 1e18 */\n    tag_2:\n      callvalue\n      dup1\n      iszero\n      tag_8\n      jumpi\n      0x00\n      dup1\n      revert\n    tag_8:\n      pop\n      tag_9\n      tag_10\n      jump\t// in\n    tag_9:\n      mload(0x40)\n      tag_11\n      swap2\n      swap1\n      tag_12\n      jump\t// in\n    tag_11:\n      mload(0x40)\n      dup1\n      swap2\n      sub\n      swap1\n      return\n        /* \"contracts/FundMe.sol\":958:1162  function getVersion() public view returns (uint256) {... */\n    tag_3:\n      callvalue\n      dup1\n      iszero\n      tag_13\n      jumpi\n      0x00\n      dup1\n      revert\n    tag_13:\n      pop\n      tag_14\n      tag_15\n      jump\t// in\n    tag_14:\n      mload(0x40)\n      tag_16\n      swap2\n      swap1\n      tag_12\n      jump\t// in\n    tag_16:\n      mload(0x40)\n      dup1\n      swap2\n      sub\n      swap1\n      return\n        /* \"contracts/FundMe.sol\":1168:1385  function getConversionRate(uint256 ethAmount) public view returns (uint256) {... */\n    tag_4:\n      callvalue\n      dup1\n      iszero\n      tag_17\n      jumpi\n      0x00\n      dup1\n      revert\n    tag_17:\n      pop\n      tag_18\n      0x04\n      dup1\n      calldatasize\n      sub\n      dup2\n      add\n      swap1\n      tag_19\n      swap2\n      swap1\n      tag_20\n      jump\t// in\n    tag_19:\n      tag_21\n      jump\t// in\n    tag_18:\n      mload(0x40)\n      tag_22\n      swap2\n      swap1\n      tag_12\n      jump\t// in\n    tag_22:\n      mload(0x40)\n      dup1\n      swap2\n      sub\n      swap1\n      return\n        /* \"contracts/FundMe.sol\":546:952  function getPrice() public view returns (uint256) {... */\n    tag_5:\n      callvalue\n      dup1\n      iszero\n      tag_23\n      jumpi\n      0x00\n      dup1\n      revert\n    tag_23:\n      pop\n      tag_24\n      tag_25\n      jump\t// in\n    tag_24:\n      mload(0x40)\n      tag_26\n      swap2\n      swap1\n      tag_12\n      jump\t// in\n    tag_26:\n      mload(0x40)\n      dup1\n      swap2\n      sub\n      swap1\n      return\n        /* \"contracts/FundMe.sol\":314:540  function fund() public payable {... */\n    tag_6:\n      tag_27\n      tag_28\n      jump\t// in\n    tag_27:\n      stop\n        /* \"contracts/FundMe.sol\":283:307  address[] public funders */\n    tag_7:\n      callvalue\n      dup1\n      iszero\n      tag_29\n      jumpi\n      0x00\n      dup1\n      revert\n    tag_29:\n      pop\n      tag_30\n      0x04\n      dup1\n      calldatasize\n      sub\n      dup2\n      add\n      swap1\n      tag_31\n      swap2\n      swap1\n      tag_20\n      jump\t// in\n    tag_31:\n      tag_32\n      jump\t// in\n    tag_30:\n      mload(0x40)\n      tag_33\n      swap2\n      swap1\n      tag_34\n      jump\t// in\n    tag_33:\n      mload(0x40)\n      dup1\n      swap2\n      sub\n      swap1\n      return\n        /* \"contracts/FundMe.sol\":239:276  uint256 public minimumUsd = 50 * 1e18 */\n    tag_10:\n      sload(0x00)\n      dup2\n      jump\t// out\n        /* \"contracts/FundMe.sol\":958:1162  function getVersion() public view returns (uint256) {... */\n    tag_15:\n        /* \"contracts/FundMe.sol\":1001:1008  uint256 */\n      0x00\n        /* \"contracts/FundMe.sol\":1020:1051  AggregatorV3Interface priceFeed */\n      dup1\n        /* \"contracts/FundMe.sol\":1076:1118  0x5f4eC3Df9cbd43714FE2740f5E3616155c5b8419 */\n      0x5f4ec3df9cbd43714fe2740f5e3616155c5b8419\n        /* \"contracts/FundMe.sol\":1020:1119  AggregatorV3Interface priceFeed = AggregatorV3Interface(0x5f4eC3Df9cbd43714FE2740f5E3616155c5b8419) */\n      swap1\n      pop\n        /* \"contracts/FundMe.sol\":1136:1145  priceFeed */\n      dup1\n        /* \"contracts/FundMe.sol\":1136:1153  priceFeed.version */\n      0xffffffffffffffffffffffffffffffffffffffff\n      and\n      0x54fd4d50\n        /* \"contracts/FundMe.sol\":1136:1155  priceFeed.version() */\n      mload(0x40)\n      dup2\n      0xffffffff\n      and\n      0xe0\n      shl\n      dup2\n      mstore\n      0x04\n      add\n      0x20\n      mload(0x40)\n      dup1\n      dup4\n      sub\n      dup2\n      dup7\n      dup1\n      extcodesize\n      iszero\n      dup1\n      iszero\n      tag_36\n      jumpi\n      0x00\n      dup1\n      revert\n    tag_36:\n      pop\n      gas\n      staticcall\n      iszero\n      dup1\n      iszero\n      tag_38\n      jumpi\n      returndatasize\n      0x00\n      dup1\n      returndatacopy\n      revert(0x00, returndatasize)\n    tag_38:\n      pop\n      pop\n      pop\n      pop\n      mload(0x40)\n      returndatasize\n      not(0x1f)\n      0x1f\n      dup3\n      add\n      and\n      dup3\n      add\n      dup1\n      0x40\n      mstore\n      pop\n      dup2\n      add\n      swap1\n      tag_39\n      swap2\n      swap1\n      tag_40\n      jump\t// in\n    tag_39:\n        /* \"contracts/FundMe.sol\":1129:1155  return priceFeed.version() */\n      swap2\n      pop\n      pop\n        /* \"contracts/FundMe.sol\":958:1162  function getVersion() public view returns (uint256) {... */\n      swap1\n      jump\t// out\n        /* \"contracts/FundMe.sol\":1168:1385  function getConversionRate(uint256 ethAmount) public view returns (uint256) {... */\n    tag_21:\n        /* \"contracts/FundMe.sol\":1235:1242  uint256 */\n      0x00\n        /* \"contracts/FundMe.sol\":1254:1270  uint256 ethPrice */\n      dup1\n        /* \"contracts/FundMe.sol\":1273:1283  getPrice() */\n      tag_42\n        /* \"contracts/FundMe.sol\":1273:1281  getPrice */\n      tag_25\n        /* \"contracts/FundMe.sol\":1273:1283  getPrice() */\n      jump\t// in\n    tag_42:\n        /* \"contracts/FundMe.sol\":1254:1283  uint256 ethPrice = getPrice() */\n      swap1\n      pop\n        /* \"contracts/FundMe.sol\":1293:1315  uint256 ethAmountInUsd */\n      0x00\n        /* \"contracts/FundMe.sol\":1343:1347  1e18 */\n      0x0de0b6b3a7640000\n        /* \"contracts/FundMe.sol\":1330:1339  ethAmount */\n      dup5\n        /* \"contracts/FundMe.sol\":1319:1327  ethPrice */\n      dup4\n        /* \"contracts/FundMe.sol\":1319:1339  ethPrice * ethAmount */\n      tag_43\n      swap2\n      swap1\n      tag_44\n      jump\t// in\n    tag_43:\n        /* \"contracts/FundMe.sol\":1318:1347  (ethPrice * ethAmount) / 1e18 */\n      tag_45\n      swap2\n      swap1\n      tag_46\n      jump\t// in\n    tag_45:\n        /* \"contracts/FundMe.sol\":1293:1347  uint256 ethAmountInUsd = (ethPrice * ethAmount) / 1e18 */\n      swap1\n      pop\n        /* \"contracts/FundMe.sol\":1364:1378  ethAmountInUsd */\n      dup1\n        /* \"contracts/FundMe.sol\":1357:1378  return ethAmountInUsd */\n      swap3\n      pop\n      pop\n      pop\n        /* \"contracts/FundMe.sol\":1168:1385  function getConversionRate(uint256 ethAmount) public view returns (uint256) {... */\n      swap2\n      swap1\n      pop\n      jump\t// out\n        /* \"contracts/FundMe.sol\":546:952  function getPrice() public view returns (uint256) {... */\n    tag_25:\n        /* \"contracts/FundMe.sol\":587:594  uint256 */\n      0x00\n        /* \"contracts/FundMe.sol\":683:714  AggregatorV3Interface priceFeed */\n      dup1\n        /* \"contracts/FundMe.sol\":739:781  0x5f4eC3Df9cbd43714FE2740f5E3616155c5b8419 */\n      0x5f4ec3df9cbd43714fe2740f5e3616155c5b8419\n        /* \"contracts/FundMe.sol\":683:782  AggregatorV3Interface priceFeed = AggregatorV3Interface(0x5f4eC3Df9cbd43714FE2740f5E3616155c5b8419) */\n      swap1\n      pop\n        /* \"contracts/FundMe.sol\":794:806  int256 price */\n      0x00\n        /* \"contracts/FundMe.sol\":813:822  priceFeed */\n      dup2\n        /* \"contracts/FundMe.sol\":813:838  priceFeed.latestRoundData */\n      0xffffffffffffffffffffffffffffffffffffffff\n      and\n      0xfeaf968c\n        /* \"contracts/FundMe.sol\":813:840  priceFeed.latestRoundData() */\n      mload(0x40)\n      dup2\n      0xffffffff\n      and\n      0xe0\n      shl\n      dup2\n      mstore\n      0x04\n      add\n      0xa0\n      mload(0x40)\n      dup1\n      dup4\n      sub\n      dup2\n      dup7\n      dup1\n      extcodesize\n      iszero\n      dup1\n      iszero\n      tag_48\n      jumpi\n      0x00\n      dup1\n      revert\n    tag_48:\n      pop\n      gas\n      staticcall\n      iszero\n      dup1\n      iszero\n      tag_50\n      jumpi\n      returndatasize\n      0x00\n      dup1\n      returndatacopy\n      revert(0x00, returndatasize)\n    tag_50:\n      pop\n      pop\n      pop\n      pop\n      mload(0x40)\n      returndatasize\n      not(0x1f)\n      0x1f\n      dup3\n      add\n      and\n      dup3\n      add\n      dup1\n      0x40\n      mstore\n      pop\n      dup2\n      add\n      swap1\n      tag_51\n      swap2\n      swap1\n      tag_52\n      jump\t// in\n    tag_51:\n        /* \"contracts/FundMe.sol\":792:840  (,int256 price,,,) = priceFeed.latestRoundData() */\n      pop\n      pop\n      pop\n      swap2\n      pop\n      pop\n        /* \"contracts/FundMe.sol\":929:933  1e10 */\n      0x02540be400\n        /* \"contracts/FundMe.sol\":921:926  price */\n      dup2\n        /* \"contracts/FundMe.sol\":921:933  price * 1e10 */\n      tag_53\n      swap2\n      swap1\n      tag_54\n      jump\t// in\n    tag_53:\n        /* \"contracts/FundMe.sol\":906:934  return uint256(price * 1e10) */\n      swap3\n      pop\n      pop\n      pop\n        /* \"contracts/FundMe.sol\":546:952  function getPrice() public view returns (uint256) {... */\n      swap1\n      jump\t// out\n        /* \"contracts/FundMe.sol\":314:540  function fund() public payable {... */\n    tag_28:\n        /* \"contracts/FundMe.sol\":458:468  minimumUsd */\n      sload(0x00)\n        /* \"contracts/FundMe.sol\":426:454  getConversionRate(msg.value) */\n      tag_56\n        /* \"contracts/FundMe.sol\":444:453  msg.value */\n      callvalue\n        /* \"contracts/FundMe.sol\":426:443  getConversionRate */\n      tag_21\n        /* \"contracts/FundMe.sol\":426:454  getConversionRate(msg.value) */\n      jump\t// in\n    tag_56:\n        /* \"contracts/FundMe.sol\":426:468  getConversionRate(msg.value) >= minimumUsd */\n      lt\n      iszero\n        /* \"contracts/FundMe.sol\":418:491  require(getConversionRate(msg.value) >= minimumUsd, \"Didn't send enough\") */\n      tag_57\n      jumpi\n      mload(0x40)\n      0x08c379a000000000000000000000000000000000000000000000000000000000\n      dup2\n      mstore\n      0x04\n      add\n      tag_58\n      swap1\n      tag_59\n      jump\t// in\n    tag_58:\n      mload(0x40)\n      dup1\n      swap2\n      sub\n      swap1\n      revert\n    tag_57:\n        /* \"contracts/FundMe.sol\":501:508  funders */\n      0x01\n        /* \"contracts/FundMe.sol\":514:524  msg.sender */\n      caller\n        /* \"contracts/FundMe.sol\":501:525  funders.push(msg.sender) */\n      swap1\n      dup1\n      0x01\n      dup2\n      sload\n      add\n      dup1\n      dup3\n      sstore\n      dup1\n      swap2\n      pop\n      pop\n      0x01\n      swap1\n      sub\n      swap1\n      0x00\n      mstore\n      keccak256(0x00, 0x20)\n      add\n      0x00\n      swap1\n      swap2\n      swap1\n      swap2\n      swap1\n      swap2\n      0x0100\n      exp\n      dup2\n      sload\n      dup2\n      0xffffffffffffffffffffffffffffffffffffffff\n      mul\n      not\n      and\n      swap1\n      dup4\n      0xffffffffffffffffffffffffffffffffffffffff\n      and\n      mul\n      or\n      swap1\n      sstore\n      pop\n        /* \"contracts/FundMe.sol\":314:540  function fund() public payable {... */\n      jump\t// out\n        /* \"contracts/FundMe.sol\":283:307  address[] public funders */\n    tag_32:\n      0x01\n      dup2\n      dup2\n      sload\n      dup2\n      lt\n      tag_61\n      jumpi\n      0x00\n      dup1\n      revert\n    tag_61:\n      swap1\n      0x00\n      mstore\n      keccak256(0x00, 0x20)\n      add\n      0x00\n      swap2\n      pop\n      sload\n      swap1\n      0x0100\n      exp\n      swap1\n      div\n      0xffffffffffffffffffffffffffffffffffffffff\n      and\n      dup2\n      jump\t// out\n        /* \"#utility.yul\":7:84   */\n    tag_63:\n        /* \"#utility.yul\":44:51   */\n      0x00\n        /* \"#utility.yul\":73:78   */\n      dup2\n        /* \"#utility.yul\":62:78   */\n      swap1\n      pop\n        /* \"#utility.yul\":7:84   */\n      swap2\n      swap1\n      pop\n      jump\t// out\n        /* \"#utility.yul\":90:208   */\n    tag_64:\n        /* \"#utility.yul\":177:201   */\n      tag_88\n        /* \"#utility.yul\":195:200   */\n      dup2\n        /* \"#utility.yul\":177:201   */\n      tag_63\n      jump\t// in\n    tag_88:\n        /* \"#utility.yul\":172:175   */\n      dup3\n        /* \"#utility.yul\":165:202   */\n      mstore\n        /* \"#utility.yul\":90:208   */\n      pop\n      pop\n      jump\t// out\n        /* \"#utility.yul\":214:436   */\n    tag_12:\n        /* \"#utility.yul\":307:311   */\n      0x00\n        /* \"#utility.yul\":345:347   */\n      0x20\n        /* \"#utility.yul\":334:343   */\n      dup3\n        /* \"#utility.yul\":330:348   */\n      add\n        /* \"#utility.yul\":322:348   */\n      swap1\n      pop\n        /* \"#utility.yul\":358:429   */\n      tag_90\n        /* \"#utility.yul\":426:427   */\n      0x00\n        /* \"#utility.yul\":415:424   */\n      dup4\n        /* \"#utility.yul\":411:428   */\n      add\n        /* \"#utility.yul\":402:408   */\n      dup5\n        /* \"#utility.yul\":358:429   */\n      tag_64\n      jump\t// in\n    tag_90:\n        /* \"#utility.yul\":214:436   */\n      swap3\n      swap2\n      pop\n      pop\n      jump\t// out\n        /* \"#utility.yul\":523:640   */\n    tag_66:\n        /* \"#utility.yul\":632:633   */\n      0x00\n        /* \"#utility.yul\":629:630   */\n      dup1\n        /* \"#utility.yul\":622:634   */\n      revert\n        /* \"#utility.yul\":769:891   */\n    tag_68:\n        /* \"#utility.yul\":842:866   */\n      tag_95\n        /* \"#utility.yul\":860:865   */\n      dup2\n        /* \"#utility.yul\":842:866   */\n      tag_63\n      jump\t// in\n    tag_95:\n        /* \"#utility.yul\":835:840   */\n      dup2\n        /* \"#utility.yul\":832:867   */\n      eq\n        /* \"#utility.yul\":822:885   */\n      tag_96\n      jumpi\n        /* \"#utility.yul\":881:882   */\n      0x00\n        /* \"#utility.yul\":878:879   */\n      dup1\n        /* \"#utility.yul\":871:883   */\n      revert\n        /* \"#utility.yul\":822:885   */\n    tag_96:\n        /* \"#utility.yul\":769:891   */\n      pop\n      jump\t// out\n        /* \"#utility.yul\":897:1036   */\n    tag_69:\n        /* \"#utility.yul\":943:948   */\n      0x00\n        /* \"#utility.yul\":981:987   */\n      dup2\n        /* \"#utility.yul\":968:988   */\n      calldataload\n        /* \"#utility.yul\":959:988   */\n      swap1\n      pop\n        /* \"#utility.yul\":997:1030   */\n      tag_98\n        /* \"#utility.yul\":1024:1029   */\n      dup2\n        /* \"#utility.yul\":997:1030   */\n      tag_68\n      jump\t// in\n    tag_98:\n        /* \"#utility.yul\":897:1036   */\n      swap3\n      swap2\n      pop\n      pop\n      jump\t// out\n        /* \"#utility.yul\":1042:1371   */\n    tag_20:\n        /* \"#utility.yul\":1101:1107   */\n      0x00\n        /* \"#utility.yul\":1150:1152   */\n      0x20\n        /* \"#utility.yul\":1138:1147   */\n      dup3\n        /* \"#utility.yul\":1129:1136   */\n      dup5\n        /* \"#utility.yul\":1125:1148   */\n      sub\n        /* \"#utility.yul\":1121:1153   */\n      slt\n        /* \"#utility.yul\":1118:1237   */\n      iszero\n      tag_100\n      jumpi\n        /* \"#utility.yul\":1156:1235   */\n      tag_101\n      tag_66\n      jump\t// in\n    tag_101:\n        /* \"#utility.yul\":1118:1237   */\n    tag_100:\n        /* \"#utility.yul\":1276:1277   */\n      0x00\n        /* \"#utility.yul\":1301:1354   */\n      tag_102\n        /* \"#utility.yul\":1346:1353   */\n      dup5\n        /* \"#utility.yul\":1337:1343   */\n      dup3\n        /* \"#utility.yul\":1326:1335   */\n      dup6\n        /* \"#utility.yul\":1322:1344   */\n      add\n        /* \"#utility.yul\":1301:1354   */\n      tag_69\n      jump\t// in\n    tag_102:\n        /* \"#utility.yul\":1291:1354   */\n      swap2\n      pop\n        /* \"#utility.yul\":1247:1364   */\n      pop\n        /* \"#utility.yul\":1042:1371   */\n      swap3\n      swap2\n      pop\n      pop\n      jump\t// out\n        /* \"#utility.yul\":1377:1503   */\n    tag_70:\n        /* \"#utility.yul\":1414:1421   */\n      0x00\n        /* \"#utility.yul\":1454:1496   */\n      0xffffffffffffffffffffffffffffffffffffffff\n        /* \"#utility.yul\":1447:1452   */\n      dup3\n        /* \"#utility.yul\":1443:1497   */\n      and\n        /* \"#utility.yul\":1432:1497   */\n      swap1\n      pop\n        /* \"#utility.yul\":1377:1503   */\n      swap2\n      swap1\n      pop\n      jump\t// out\n        /* \"#utility.yul\":1509:1605   */\n    tag_71:\n        /* \"#utility.yul\":1546:1553   */\n      0x00\n        /* \"#utility.yul\":1575:1599   */\n      tag_105\n        /* \"#utility.yul\":1593:1598   */\n      dup3\n        /* \"#utility.yul\":1575:1599   */\n      tag_70\n      jump\t// in\n    tag_105:\n        /* \"#utility.yul\":1564:1599   */\n      swap1\n      pop\n        /* \"#utility.yul\":1509:1605   */\n      swap2\n      swap1\n      pop\n      jump\t// out\n        /* \"#utility.yul\":1611:1729   */\n    tag_72:\n        /* \"#utility.yul\":1698:1722   */\n      tag_107\n        /* \"#utility.yul\":1716:1721   */\n      dup2\n        /* \"#utility.yul\":1698:1722   */\n      tag_71\n      jump\t// in\n    tag_107:\n        /* \"#utility.yul\":1693:1696   */\n      dup3\n        /* \"#utility.yul\":1686:1723   */\n      mstore\n        /* \"#utility.yul\":1611:1729   */\n      pop\n      pop\n      jump\t// out\n        /* \"#utility.yul\":1735:1957   */\n    tag_34:\n        /* \"#utility.yul\":1828:1832   */\n      0x00\n        /* \"#utility.yul\":1866:1868   */\n      0x20\n        /* \"#utility.yul\":1855:1864   */\n      dup3\n        /* \"#utility.yul\":1851:1869   */\n      add\n        /* \"#utility.yul\":1843:1869   */\n      swap1\n      pop\n        /* \"#utility.yul\":1879:1950   */\n      tag_109\n        /* \"#utility.yul\":1947:1948   */\n      0x00\n        /* \"#utility.yul\":1936:1945   */\n      dup4\n        /* \"#utility.yul\":1932:1949   */\n      add\n        /* \"#utility.yul\":1923:1929   */\n      dup5\n        /* \"#utility.yul\":1879:1950   */\n      tag_72\n      jump\t// in\n    tag_109:\n        /* \"#utility.yul\":1735:1957   */\n      swap3\n      swap2\n      pop\n      pop\n      jump\t// out\n        /* \"#utility.yul\":1963:2106   */\n    tag_73:\n        /* \"#utility.yul\":2020:2025   */\n      0x00\n        /* \"#utility.yul\":2051:2057   */\n      dup2\n        /* \"#utility.yul\":2045:2058   */\n      mload\n        /* \"#utility.yul\":2036:2058   */\n      swap1\n      pop\n        /* \"#utility.yul\":2067:2100   */\n      tag_111\n        /* \"#utility.yul\":2094:2099   */\n      dup2\n        /* \"#utility.yul\":2067:2100   */\n      tag_68\n      jump\t// in\n    tag_111:\n        /* \"#utility.yul\":1963:2106   */\n      swap3\n      swap2\n      pop\n      pop\n      jump\t// out\n        /* \"#utility.yul\":2112:2463   */\n    tag_40:\n        /* \"#utility.yul\":2182:2188   */\n      0x00\n        /* \"#utility.yul\":2231:2233   */\n      0x20\n        /* \"#utility.yul\":2219:2228   */\n      dup3\n        /* \"#utility.yul\":2210:2217   */\n      dup5\n        /* \"#utility.yul\":2206:2229   */\n      sub\n        /* \"#utility.yul\":2202:2234   */\n      slt\n        /* \"#utility.yul\":2199:2318   */\n      iszero\n      tag_113\n      jumpi\n        /* \"#utility.yul\":2237:2316   */\n      tag_114\n      tag_66\n      jump\t// in\n    tag_114:\n        /* \"#utility.yul\":2199:2318   */\n    tag_113:\n        /* \"#utility.yul\":2357:2358   */\n      0x00\n        /* \"#utility.yul\":2382:2446   */\n      tag_115\n        /* \"#utility.yul\":2438:2445   */\n      dup5\n        /* \"#utility.yul\":2429:2435   */\n      dup3\n        /* \"#utility.yul\":2418:2427   */\n      dup6\n        /* \"#utility.yul\":2414:2436   */\n      add\n        /* \"#utility.yul\":2382:2446   */\n      tag_73\n      jump\t// in\n    tag_115:\n        /* \"#utility.yul\":2372:2446   */\n      swap2\n      pop\n        /* \"#utility.yul\":2328:2456   */\n      pop\n        /* \"#utility.yul\":2112:2463   */\n      swap3\n      swap2\n      pop\n      pop\n      jump\t// out\n        /* \"#utility.yul\":2469:2649   */\n    tag_74:\n        /* \"#utility.yul\":2517:2594   */\n      0x4e487b7100000000000000000000000000000000000000000000000000000000\n        /* \"#utility.yul\":2514:2515   */\n      0x00\n        /* \"#utility.yul\":2507:2595   */\n      mstore\n        /* \"#utility.yul\":2614:2618   */\n      0x11\n        /* \"#utility.yul\":2611:2612   */\n      0x04\n        /* \"#utility.yul\":2604:2619   */\n      mstore\n        /* \"#utility.yul\":2638:2642   */\n      0x24\n        /* \"#utility.yul\":2635:2636   */\n      0x00\n        /* \"#utility.yul\":2628:2643   */\n      revert\n        /* \"#utility.yul\":2655:3003   */\n    tag_44:\n        /* \"#utility.yul\":2695:2702   */\n      0x00\n        /* \"#utility.yul\":2718:2738   */\n      tag_118\n        /* \"#utility.yul\":2736:2737   */\n      dup3\n        /* \"#utility.yul\":2718:2738   */\n      tag_63\n      jump\t// in\n    tag_118:\n        /* \"#utility.yul\":2713:2738   */\n      swap2\n      pop\n        /* \"#utility.yul\":2752:2772   */\n      tag_119\n        /* \"#utility.yul\":2770:2771   */\n      dup4\n        /* \"#utility.yul\":2752:2772   */\n      tag_63\n      jump\t// in\n    tag_119:\n        /* \"#utility.yul\":2747:2772   */\n      swap3\n      pop\n        /* \"#utility.yul\":2940:2941   */\n      dup2\n        /* \"#utility.yul\":2872:2938   */\n      0xffffffffffffffffffffffffffffffffffffffffffffffffffffffffffffffff\n        /* \"#utility.yul\":2868:2942   */\n      div\n        /* \"#utility.yul\":2865:2866   */\n      dup4\n        /* \"#utility.yul\":2862:2943   */\n      gt\n        /* \"#utility.yul\":2857:2858   */\n      dup3\n        /* \"#utility.yul\":2850:2859   */\n      iszero\n        /* \"#utility.yul\":2843:2860   */\n      iszero\n        /* \"#utility.yul\":2839:2944   */\n      and\n        /* \"#utility.yul\":2836:2967   */\n      iszero\n      tag_120\n      jumpi\n        /* \"#utility.yul\":2947:2965   */\n      tag_121\n      tag_74\n      jump\t// in\n    tag_121:\n        /* \"#utility.yul\":2836:2967   */\n    tag_120:\n        /* \"#utility.yul\":2995:2996   */\n      dup3\n        /* \"#utility.yul\":2992:2993   */\n      dup3\n        /* \"#utility.yul\":2988:2997   */\n      mul\n        /* \"#utility.yul\":2977:2997   */\n      swap1\n      pop\n        /* \"#utility.yul\":2655:3003   */\n      swap3\n      swap2\n      pop\n      pop\n      jump\t// out\n        /* \"#utility.yul\":3009:3189   */\n    tag_75:\n        /* \"#utility.yul\":3057:3134   */\n      0x4e487b7100000000000000000000000000000000000000000000000000000000\n        /* \"#utility.yul\":3054:3055   */\n      0x00\n        /* \"#utility.yul\":3047:3135   */\n      mstore\n        /* \"#utility.yul\":3154:3158   */\n      0x12\n        /* \"#utility.yul\":3151:3152   */\n      0x04\n        /* \"#utility.yul\":3144:3159   */\n      mstore\n        /* \"#utility.yul\":3178:3182   */\n      0x24\n        /* \"#utility.yul\":3175:3176   */\n      0x00\n        /* \"#utility.yul\":3168:3183   */\n      revert\n        /* \"#utility.yul\":3195:3380   */\n    tag_46:\n        /* \"#utility.yul\":3235:3236   */\n      0x00\n        /* \"#utility.yul\":3252:3272   */\n      tag_124\n        /* \"#utility.yul\":3270:3271   */\n      dup3\n        /* \"#utility.yul\":3252:3272   */\n      tag_63\n      jump\t// in\n    tag_124:\n        /* \"#utility.yul\":3247:3272   */\n      swap2\n      pop\n        /* \"#utility.yul\":3286:3306   */\n      tag_125\n        /* \"#utility.yul\":3304:3305   */\n      dup4\n        /* \"#utility.yul\":3286:3306   */\n      tag_63\n      jump\t// in\n    tag_125:\n        /* \"#utility.yul\":3281:3306   */\n      swap3\n      pop\n        /* \"#utility.yul\":3325:3326   */\n      dup3\n        /* \"#utility.yul\":3315:3350   */\n      tag_126\n      jumpi\n        /* \"#utility.yul\":3330:3348   */\n      tag_127\n      tag_75\n      jump\t// in\n    tag_127:\n        /* \"#utility.yul\":3315:3350   */\n    tag_126:\n        /* \"#utility.yul\":3372:3373   */\n      dup3\n        /* \"#utility.yul\":3369:3370   */\n      dup3\n        /* \"#utility.yul\":3365:3374   */\n      div\n        /* \"#utility.yul\":3360:3374   */\n      swap1\n      pop\n        /* \"#utility.yul\":3195:3380   */\n      swap3\n      swap2\n      pop\n      pop\n      jump\t// out\n        /* \"#utility.yul\":3386:3491   */\n    tag_76:\n        /* \"#utility.yul\":3422:3429   */\n      0x00\n        /* \"#utility.yul\":3462:3484   */\n      0xffffffffffffffffffff\n        /* \"#utility.yul\":3455:3460   */\n      dup3\n        /* \"#utility.yul\":3451:3485   */\n      and\n        /* \"#utility.yul\":3440:3485   */\n      swap1\n      pop\n        /* \"#utility.yul\":3386:3491   */\n      swap2\n      swap1\n      pop\n      jump\t// out\n        /* \"#utility.yul\":3497:3617   */\n    tag_77:\n        /* \"#utility.yul\":3569:3592   */\n      tag_130\n        /* \"#utility.yul\":3586:3591   */\n      dup2\n        /* \"#utility.yul\":3569:3592   */\n      tag_76\n      jump\t// in\n    tag_130:\n        /* \"#utility.yul\":3562:3567   */\n      dup2\n        /* \"#utility.yul\":3559:3593   */\n      eq\n        /* \"#utility.yul\":3549:3611   */\n      tag_131\n      jumpi\n        /* \"#utility.yul\":3607:3608   */\n      0x00\n        /* \"#utility.yul\":3604:3605   */\n      dup1\n        /* \"#utility.yul\":3597:3609   */\n      revert\n        /* \"#utility.yul\":3549:3611   */\n    tag_131:\n        /* \"#utility.yul\":3497:3617   */\n      pop\n      jump\t// out\n        /* \"#utility.yul\":3623:3764   */\n    tag_78:\n        /* \"#utility.yul\":3679:3684   */\n      0x00\n        /* \"#utility.yul\":3710:3716   */\n      dup2\n        /* \"#utility.yul\":3704:3717   */\n      mload\n        /* \"#utility.yul\":3695:3717   */\n      swap1\n      pop\n        /* \"#utility.yul\":3726:3758   */\n      tag_133\n        /* \"#utility.yul\":3752:3757   */\n      dup2\n        /* \"#utility.yul\":3726:3758   */\n      tag_77\n      jump\t// in\n    tag_133:\n        /* \"#utility.yul\":3623:3764   */\n      swap3\n      swap2\n      pop\n      pop\n      jump\t// out\n        /* \"#utility.yul\":3770:3846   */\n    tag_79:\n        /* \"#utility.yul\":3806:3813   */\n      0x00\n        /* \"#utility.yul\":3835:3840   */\n      dup2\n        /* \"#utility.yul\":3824:3840   */\n      swap1\n      pop\n        /* \"#utility.yul\":3770:3846   */\n      swap2\n      swap1\n      pop\n      jump\t// out\n        /* \"#utility.yul\":3852:3972   */\n    tag_80:\n        /* \"#utility.yul\":3924:3947   */\n      tag_136\n        /* \"#utility.yul\":3941:3946   */\n      dup2\n        /* \"#utility.yul\":3924:3947   */\n      tag_79\n      jump\t// in\n    tag_136:\n        /* \"#utility.yul\":3917:3922   */\n      dup2\n        /* \"#utility.yul\":3914:3948   */\n      eq\n        /* \"#utility.yul\":3904:3966   */\n      tag_137\n      jumpi\n        /* \"#utility.yul\":3962:3963   */\n      0x00\n        /* \"#utility.yul\":3959:3960   */\n      dup1\n        /* \"#utility.yul\":3952:3964   */\n      revert\n        /* \"#utility.yul\":3904:3966   */\n    tag_137:\n        /* \"#utility.yul\":3852:3972   */\n      pop\n      jump\t// out\n        /* \"#utility.yul\":3978:4119   */\n    tag_81:\n        /* \"#utility.yul\":4034:4039   */\n      0x00\n        /* \"#utility.yul\":4065:4071   */\n      dup2\n        /* \"#utility.yul\":4059:4072   */\n      mload\n        /* \"#utility.yul\":4050:4072   */\n      swap1\n      pop\n        /* \"#utility.yul\":4081:4113   */\n      tag_139\n        /* \"#utility.yul\":4107:4112   */\n      dup2\n        /* \"#utility.yul\":4081:4113   */\n      tag_80\n      jump\t// in\n    tag_139:\n        /* \"#utility.yul\":3978:4119   */\n      swap3\n      swap2\n      pop\n      pop\n      jump\t// out\n        /* \"#utility.yul\":4125:5096   */\n    tag_52:\n        /* \"#utility.yul\":4228:4234   */\n      0x00\n        /* \"#utility.yul\":4236:4242   */\n      dup1\n        /* \"#utility.yul\":4244:4250   */\n      0x00\n        /* \"#utility.yul\":4252:4258   */\n      dup1\n        /* \"#utility.yul\":4260:4266   */\n      0x00\n        /* \"#utility.yul\":4309:4312   */\n      0xa0\n        /* \"#utility.yul\":4297:4306   */\n      dup7\n        /* \"#utility.yul\":4288:4295   */\n      dup9\n        /* \"#utility.yul\":4284:4307   */\n      sub\n        /* \"#utility.yul\":4280:4313   */\n      slt\n        /* \"#utility.yul\":4277:4397   */\n      iszero\n      tag_141\n      jumpi\n        /* \"#utility.yul\":4316:4395   */\n      tag_142\n      tag_66\n      jump\t// in\n    tag_142:\n        /* \"#utility.yul\":4277:4397   */\n    tag_141:\n        /* \"#utility.yul\":4436:4437   */\n      0x00\n        /* \"#utility.yul\":4461:4524   */\n      tag_143\n        /* \"#utility.yul\":4516:4523   */\n      dup9\n        /* \"#utility.yul\":4507:4513   */\n      dup3\n        /* \"#utility.yul\":4496:4505   */\n      dup10\n        /* \"#utility.yul\":4492:4514   */\n      add\n        /* \"#utility.yul\":4461:4524   */\n      tag_78\n      jump\t// in\n    tag_143:\n        /* \"#utility.yul\":4451:4524   */\n      swap6\n      pop\n        /* \"#utility.yul\":4407:4534   */\n      pop\n        /* \"#utility.yul\":4573:4575   */\n      0x20\n        /* \"#utility.yul\":4599:4662   */\n      tag_144\n        /* \"#utility.yul\":4654:4661   */\n      dup9\n        /* \"#utility.yul\":4645:4651   */\n      dup3\n        /* \"#utility.yul\":4634:4643   */\n      dup10\n        /* \"#utility.yul\":4630:4652   */\n      add\n        /* \"#utility.yul\":4599:4662   */\n      tag_81\n      jump\t// in\n    tag_144:\n        /* \"#utility.yul\":4589:4662   */\n      swap5\n      pop\n        /* \"#utility.yul\":4544:4672   */\n      pop\n        /* \"#utility.yul\":4711:4713   */\n      0x40\n        /* \"#utility.yul\":4737:4801   */\n      tag_145\n        /* \"#utility.yul\":4793:4800   */\n      dup9\n        /* \"#utility.yul\":4784:4790   */\n      dup3\n        /* \"#utility.yul\":4773:4782   */\n      dup10\n        /* \"#utility.yul\":4769:4791   */\n      add\n        /* \"#utility.yul\":4737:4801   */\n      tag_73\n      jump\t// in\n    tag_145:\n        /* \"#utility.yul\":4727:4801   */\n      swap4\n      pop\n        /* \"#utility.yul\":4682:4811   */\n      pop\n        /* \"#utility.yul\":4850:4852   */\n      0x60\n        /* \"#utility.yul\":4876:4940   */\n      tag_146\n        /* \"#utility.yul\":4932:4939   */\n      dup9\n        /* \"#utility.yul\":4923:4929   */\n      dup3\n        /* \"#utility.yul\":4912:4921   */\n      dup10\n        /* \"#utility.yul\":4908:4930   */\n      add\n        /* \"#utility.yul\":4876:4940   */\n      tag_73\n      jump\t// in\n    tag_146:\n        /* \"#utility.yul\":4866:4940   */\n      swap3\n      pop\n        /* \"#utility.yul\":4821:4950   */\n      pop\n        /* \"#utility.yul\":4989:4992   */\n      0x80\n        /* \"#utility.yul\":5016:5079   */\n      tag_147\n        /* \"#utility.yul\":5071:5078   */\n      dup9\n        /* \"#utility.yul\":5062:5068   */\n      dup3\n        /* \"#utility.yul\":5051:5060   */\n      dup10\n        /* \"#utility.yul\":5047:5069   */\n      add\n        /* \"#utility.yul\":5016:5079   */\n      tag_78\n      jump\t// in\n    tag_147:\n        /* \"#utility.yul\":5006:5079   */\n      swap2\n      pop\n        /* \"#utility.yul\":4960:5089   */\n      pop\n        /* \"#utility.yul\":4125:5096   */\n      swap3\n      swap6\n      pop\n      swap3\n      swap6\n      swap1\n      swap4\n      pop\n      jump\t// out\n        /* \"#utility.yul\":5102:6093   */\n    tag_54:\n        /* \"#utility.yul\":5141:5148   */\n      0x00\n        /* \"#utility.yul\":5164:5183   */\n      tag_149\n        /* \"#utility.yul\":5181:5182   */\n      dup3\n        /* \"#utility.yul\":5164:5183   */\n      tag_79\n      jump\t// in\n    tag_149:\n        /* \"#utility.yul\":5159:5183   */\n      swap2\n      pop\n        /* \"#utility.yul\":5197:5216   */\n      tag_150\n        /* \"#utility.yul\":5214:5215   */\n      dup4\n        /* \"#utility.yul\":5197:5216   */\n      tag_79\n      jump\t// in\n    tag_150:\n        /* \"#utility.yul\":5192:5216   */\n      swap3\n      pop\n        /* \"#utility.yul\":5398:5399   */\n      dup3\n        /* \"#utility.yul\":5330:5396   */\n      0x7fffffffffffffffffffffffffffffffffffffffffffffffffffffffffffffff\n        /* \"#utility.yul\":5326:5400   */\n      div\n        /* \"#utility.yul\":5323:5324   */\n      dup3\n        /* \"#utility.yul\":5320:5401   */\n      gt\n        /* \"#utility.yul\":5315:5316   */\n      0x00\n        /* \"#utility.yul\":5312:5313   */\n      dup5\n        /* \"#utility.yul\":5308:5317   */\n      sgt\n        /* \"#utility.yul\":5304:5305   */\n      0x00\n        /* \"#utility.yul\":5301:5302   */\n      dup5\n        /* \"#utility.yul\":5297:5306   */\n      sgt\n        /* \"#utility.yul\":5293:5318   */\n      and\n        /* \"#utility.yul\":5289:5402   */\n      and\n        /* \"#utility.yul\":5286:5425   */\n      iszero\n      tag_151\n      jumpi\n        /* \"#utility.yul\":5405:5423   */\n      tag_152\n      tag_74\n      jump\t// in\n    tag_152:\n        /* \"#utility.yul\":5286:5425   */\n    tag_151:\n        /* \"#utility.yul\":5609:5610   */\n      dup2\n        /* \"#utility.yul\":5541:5607   */\n      0x8000000000000000000000000000000000000000000000000000000000000000\n        /* \"#utility.yul\":5536:5611   */\n      sdiv\n        /* \"#utility.yul\":5533:5534   */\n      dup4\n        /* \"#utility.yul\":5529:5612   */\n      slt\n        /* \"#utility.yul\":5524:5525   */\n      0x00\n        /* \"#utility.yul\":5521:5522   */\n      dup5\n        /* \"#utility.yul\":5517:5526   */\n      slt\n        /* \"#utility.yul\":5513:5514   */\n      0x00\n        /* \"#utility.yul\":5510:5511   */\n      dup5\n        /* \"#utility.yul\":5506:5515   */\n      sgt\n        /* \"#utility.yul\":5502:5527   */\n      and\n        /* \"#utility.yul\":5498:5613   */\n      and\n        /* \"#utility.yul\":5495:5636   */\n      iszero\n      tag_153\n      jumpi\n        /* \"#utility.yul\":5616:5634   */\n      tag_154\n      tag_74\n      jump\t// in\n    tag_154:\n        /* \"#utility.yul\":5495:5636   */\n    tag_153:\n        /* \"#utility.yul\":5820:5821   */\n      dup3\n        /* \"#utility.yul\":5752:5818   */\n      0x8000000000000000000000000000000000000000000000000000000000000000\n        /* \"#utility.yul\":5747:5822   */\n      sdiv\n        /* \"#utility.yul\":5744:5745   */\n      dup3\n        /* \"#utility.yul\":5740:5823   */\n      slt\n        /* \"#utility.yul\":5735:5736   */\n      0x00\n        /* \"#utility.yul\":5732:5733   */\n      dup5\n        /* \"#utility.yul\":5728:5737   */\n      sgt\n        /* \"#utility.yul\":5724:5725   */\n      0x00\n        /* \"#utility.yul\":5721:5722   */\n      dup5\n        /* \"#utility.yul\":5717:5726   */\n      slt\n        /* \"#utility.yul\":5713:5738   */\n      and\n        /* \"#utility.yul\":5709:5824   */\n      and\n        /* \"#utility.yul\":5706:5847   */\n      iszero\n      tag_155\n      jumpi\n        /* \"#utility.yul\":5827:5845   */\n      tag_156\n      tag_74\n      jump\t// in\n    tag_156:\n        /* \"#utility.yul\":5706:5847   */\n    tag_155:\n        /* \"#utility.yul\":6030:6031   */\n      dup3\n        /* \"#utility.yul\":5962:6028   */\n      0x7fffffffffffffffffffffffffffffffffffffffffffffffffffffffffffffff\n        /* \"#utility.yul\":5957:6032   */\n      sdiv\n        /* \"#utility.yul\":5954:5955   */\n      dup3\n        /* \"#utility.yul\":5950:6033   */\n      slt\n        /* \"#utility.yul\":5945:5946   */\n      0x00\n        /* \"#utility.yul\":5942:5943   */\n      dup5\n        /* \"#utility.yul\":5938:5947   */\n      slt\n        /* \"#utility.yul\":5934:5935   */\n      0x00\n        /* \"#utility.yul\":5931:5932   */\n      dup5\n        /* \"#utility.yul\":5927:5936   */\n      slt\n        /* \"#utility.yul\":5923:5948   */\n      and\n        /* \"#utility.yul\":5919:6034   */\n      and\n        /* \"#utility.yul\":5916:6057   */\n      iszero\n      tag_157\n      jumpi\n        /* \"#utility.yul\":6037:6055   */\n      tag_158\n      tag_74\n      jump\t// in\n    tag_158:\n        /* \"#utility.yul\":5916:6057   */\n    tag_157:\n        /* \"#utility.yul\":6085:6086   */\n      dup3\n        /* \"#utility.yul\":6082:6083   */\n      dup3\n        /* \"#utility.yul\":6078:6087   */\n      mul\n        /* \"#utility.yul\":6067:6087   */\n      swap1\n      pop\n        /* \"#utility.yul\":5102:6093   */\n      swap3\n      swap2\n      pop\n      pop\n      jump\t// out\n        /* \"#utility.yul\":6099:6268   */\n    tag_82:\n        /* \"#utility.yul\":6183:6194   */\n      0x00\n        /* \"#utility.yul\":6217:6223   */\n      dup3\n        /* \"#utility.yul\":6212:6215   */\n      dup3\n        /* \"#utility.yul\":6205:6224   */\n      mstore\n        /* \"#utility.yul\":6257:6261   */\n      0x20\n        /* \"#utility.yul\":6252:6255   */\n      dup3\n        /* \"#utility.yul\":6248:6262   */\n      add\n        /* \"#utility.yul\":6233:6262   */\n      swap1\n      pop\n        /* \"#utility.yul\":6099:6268   */\n      swap3\n      swap2\n      pop\n      pop\n      jump\t// out\n        /* \"#utility.yul\":6274:6442   */\n    tag_83:\n        /* \"#utility.yul\":6414:6434   */\n      0x4469646e27742073656e6420656e6f7567680000000000000000000000000000\n        /* \"#utility.yul\":6410:6411   */\n      0x00\n        /* \"#utility.yul\":6402:6408   */\n      dup3\n        /* \"#utility.yul\":6398:6412   */\n      add\n        /* \"#utility.yul\":6391:6435   */\n      mstore\n        /* \"#utility.yul\":6274:6442   */\n      pop\n      jump\t// out\n        /* \"#utility.yul\":6448:6814   */\n    tag_84:\n        /* \"#utility.yul\":6590:6593   */\n      0x00\n        /* \"#utility.yul\":6611:6678   */\n      tag_162\n        /* \"#utility.yul\":6675:6677   */\n      0x12\n        /* \"#utility.yul\":6670:6673   */\n      dup4\n        /* \"#utility.yul\":6611:6678   */\n      tag_82\n      jump\t// in\n    tag_162:\n        /* \"#utility.yul\":6604:6678   */\n      swap2\n      pop\n        /* \"#utility.yul\":6687:6780   */\n      tag_163\n        /* \"#utility.yul\":6776:6779   */\n      dup3\n        /* \"#utility.yul\":6687:6780   */\n      tag_83\n      jump\t// in\n    tag_163:\n        /* \"#utility.yul\":6805:6807   */\n      0x20\n        /* \"#utility.yul\":6800:6803   */\n      dup3\n        /* \"#utility.yul\":6796:6808   */\n      add\n        /* \"#utility.yul\":6789:6808   */\n      swap1\n      pop\n        /* \"#utility.yul\":6448:6814   */\n      swap2\n      swap1\n      pop\n      jump\t// out\n        /* \"#utility.yul\":6820:7239   */\n    tag_59:\n        /* \"#utility.yul\":6986:6990   */\n      0x00\n        /* \"#utility.yul\":7024:7026   */\n      0x20\n        /* \"#utility.yul\":7013:7022   */\n      dup3\n        /* \"#utility.yul\":7009:7027   */\n      add\n        /* \"#utility.yul\":7001:7027   */\n      swap1\n      pop\n        /* \"#utility.yul\":7073:7082   */\n      dup2\n        /* \"#utility.yul\":7067:7071   */\n      dup2\n        /* \"#utility.yul\":7063:7083   */\n      sub\n        /* \"#utility.yul\":7059:7060   */\n      0x00\n        /* \"#utility.yul\":7048:7057   */\n      dup4\n        /* \"#utility.yul\":7044:7061   */\n      add\n        /* \"#utility.yul\":7037:7084   */\n      mstore\n        /* \"#utility.yul\":7101:7232   */\n      tag_165\n        /* \"#utility.yul\":7227:7231   */\n      dup2\n        /* \"#utility.yul\":7101:7232   */\n      tag_84\n      jump\t// in\n    tag_165:\n        /* \"#utility.yul\":7093:7232   */\n      swap1\n      pop\n        /* \"#utility.yul\":6820:7239   */\n      swap2\n      swap1\n      pop\n      jump\t// out\n\n    auxdata: 0xa26469706673582212209f77dca5b2c558b4bc08effa3b5f3019c15c04c5d3df08ada75d97b210e4950c64736f6c63430008080033\n}\n",
				"bytecode": {
					"linkReferences": {},
					"object": "60806040526802b5e3af16b188000060005534801561001d57600080fd5b506108bc8061002d6000396000f3fe6080604052600436106100555760003560e01c8063098de8201461005a5780630d8e6e2c146100855780636e5b6b28146100b057806398d5fdca146100ed578063b60d428814610118578063dc0d3dff14610122575b600080fd5b34801561006657600080fd5b5061006f61015f565b60405161007c91906103ff565b60405180910390f35b34801561009157600080fd5b5061009a610165565b6040516100a791906103ff565b60405180910390f35b3480156100bc57600080fd5b506100d760048036038101906100d2919061044b565b610203565b6040516100e491906103ff565b60405180910390f35b3480156100f957600080fd5b5061010261023d565b60405161010f91906103ff565b60405180910390f35b6101206102f5565b005b34801561012e57600080fd5b506101496004803603810190610144919061044b565b6103a7565b60405161015691906104b9565b60405180910390f35b60005481565b600080735f4ec3df9cbd43714fe2740f5e3616155c5b841990508073ffffffffffffffffffffffffffffffffffffffff166354fd4d506040518163ffffffff1660e01b815260040160206040518083038186803b1580156101c557600080fd5b505afa1580156101d9573d6000803e3d6000fd5b505050506040513d601f19601f820116820180604052508101906101fd91906104e9565b91505090565b60008061020e61023d565b90506000670de0b6b3a764000084836102279190610545565b61023191906105ce565b90508092505050919050565b600080735f4ec3df9cbd43714fe2740f5e3616155c5b8419905060008173ffffffffffffffffffffffffffffffffffffffff1663feaf968c6040518163ffffffff1660e01b815260040160a06040518083038186803b15801561029f57600080fd5b505afa1580156102b3573d6000803e3d6000fd5b505050506040513d601f19601f820116820180604052508101906102d79190610677565b5050509150506402540be400816102ee91906106f2565b9250505090565b60005461030134610203565b1015610342576040517f08c379a000000000000000000000000000000000000000000000000000000000815260040161033990610866565b60405180910390fd5b6001339080600181540180825580915050600190039060005260206000200160009091909190916101000a81548173ffffffffffffffffffffffffffffffffffffffff021916908373ffffffffffffffffffffffffffffffffffffffff160217905550565b600181815481106103b757600080fd5b906000526020600020016000915054906101000a900473ffffffffffffffffffffffffffffffffffffffff1681565b6000819050919050565b6103f9816103e6565b82525050565b600060208201905061041460008301846103f0565b92915050565b600080fd5b610428816103e6565b811461043357600080fd5b50565b6000813590506104458161041f565b92915050565b6000602082840312156104615761046061041a565b5b600061046f84828501610436565b91505092915050565b600073ffffffffffffffffffffffffffffffffffffffff82169050919050565b60006104a382610478565b9050919050565b6104b381610498565b82525050565b60006020820190506104ce60008301846104aa565b92915050565b6000815190506104e38161041f565b92915050565b6000602082840312156104ff576104fe61041a565b5b600061050d848285016104d4565b91505092915050565b7f4e487b7100000000000000000000000000000000000000000000000000000000600052601160045260246000fd5b6000610550826103e6565b915061055b836103e6565b9250817fffffffffffffffffffffffffffffffffffffffffffffffffffffffffffffffff048311821515161561059457610593610516565b5b828202905092915050565b7f4e487b7100000000000000000000000000000000000000000000000000000000600052601260045260246000fd5b60006105d9826103e6565b91506105e4836103e6565b9250826105f4576105f361059f565b5b828204905092915050565b600069ffffffffffffffffffff82169050919050565b61061e816105ff565b811461062957600080fd5b50565b60008151905061063b81610615565b92915050565b6000819050919050565b61065481610641565b811461065f57600080fd5b50565b6000815190506106718161064b565b92915050565b600080600080600060a086880312156106935761069261041a565b5b60006106a18882890161062c565b95505060206106b288828901610662565b94505060406106c3888289016104d4565b93505060606106d4888289016104d4565b92505060806106e58882890161062c565b9150509295509295909350565b60006106fd82610641565b915061070883610641565b9250827f7fffffffffffffffffffffffffffffffffffffffffffffffffffffffffffffff048211600084136000841316161561074757610746610516565b5b817f8000000000000000000000000000000000000000000000000000000000000000058312600084126000841316161561078457610783610516565b5b827f800000000000000000000000000000000000000000000000000000000000000005821260008413600084121616156107c1576107c0610516565b5b827f7fffffffffffffffffffffffffffffffffffffffffffffffffffffffffffffff05821260008412600084121616156107fe576107fd610516565b5b828202905092915050565b600082825260208201905092915050565b7f4469646e27742073656e6420656e6f7567680000000000000000000000000000600082015250565b6000610850601283610809565b915061085b8261081a565b602082019050919050565b6000602082019050818103600083015261087f81610843565b905091905056fea26469706673582212209f77dca5b2c558b4bc08effa3b5f3019c15c04c5d3df08ada75d97b210e4950c64736f6c63430008080033",
					"opcodes": "PUSH1 0x80 PUSH1 0x40 MSTORE PUSH9 0x2B5E3AF16B1880000 PUSH1 0x0 SSTORE CALLVALUE DUP1 ISZERO PUSH2 0x1D JUMPI PUSH1 0x0 DUP1 REVERT JUMPDEST POP PUSH2 0x8BC DUP1 PUSH2 0x2D PUSH1 0x0 CODECOPY PUSH1 0x0 RETURN INVALID PUSH1 0x80 PUSH1 0x40 MSTORE PUSH1 0x4 CALLDATASIZE LT PUSH2 0x55 JUMPI PUSH1 0x0 CALLDATALOAD PUSH1 0xE0 SHR DUP1 PUSH4 0x98DE820 EQ PUSH2 0x5A JUMPI DUP1 PUSH4 0xD8E6E2C EQ PUSH2 0x85 JUMPI DUP1 PUSH4 0x6E5B6B28 EQ PUSH2 0xB0 JUMPI DUP1 PUSH4 0x98D5FDCA EQ PUSH2 0xED JUMPI DUP1 PUSH4 0xB60D4288 EQ PUSH2 0x118 JUMPI DUP1 PUSH4 0xDC0D3DFF EQ PUSH2 0x122 JUMPI JUMPDEST PUSH1 0x0 DUP1 REVERT JUMPDEST CALLVALUE DUP1 ISZERO PUSH2 0x66 JUMPI PUSH1 0x0 DUP1 REVERT JUMPDEST POP PUSH2 0x6F PUSH2 0x15F JUMP JUMPDEST PUSH1 0x40 MLOAD PUSH2 0x7C SWAP2 SWAP1 PUSH2 0x3FF JUMP JUMPDEST PUSH1 0x40 MLOAD DUP1 SWAP2 SUB SWAP1 RETURN JUMPDEST CALLVALUE DUP1 ISZERO PUSH2 0x91 JUMPI PUSH1 0x0 DUP1 REVERT JUMPDEST POP PUSH2 0x9A PUSH2 0x165 JUMP JUMPDEST PUSH1 0x40 MLOAD PUSH2 0xA7 SWAP2 SWAP1 PUSH2 0x3FF JUMP JUMPDEST PUSH1 0x40 MLOAD DUP1 SWAP2 SUB SWAP1 RETURN JUMPDEST CALLVALUE DUP1 ISZERO PUSH2 0xBC JUMPI PUSH1 0x0 DUP1 REVERT JUMPDEST POP PUSH2 0xD7 PUSH1 0x4 DUP1 CALLDATASIZE SUB DUP2 ADD SWAP1 PUSH2 0xD2 SWAP2 SWAP1 PUSH2 0x44B JUMP JUMPDEST PUSH2 0x203 JUMP JUMPDEST PUSH1 0x40 MLOAD PUSH2 0xE4 SWAP2 SWAP1 PUSH2 0x3FF JUMP JUMPDEST PUSH1 0x40 MLOAD DUP1 SWAP2 SUB SWAP1 RETURN JUMPDEST CALLVALUE DUP1 ISZERO PUSH2 0xF9 JUMPI PUSH1 0x0 DUP1 REVERT JUMPDEST POP PUSH2 0x102 PUSH2 0x23D JUMP JUMPDEST PUSH1 0x40 MLOAD PUSH2 0x10F SWAP2 SWAP1 PUSH2 0x3FF JUMP JUMPDEST PUSH1 0x40 MLOAD DUP1 SWAP2 SUB SWAP1 RETURN JUMPDEST PUSH2 0x120 PUSH2 0x2F5 JUMP JUMPDEST STOP JUMPDEST CALLVALUE DUP1 ISZERO PUSH2 0x12E JUMPI PUSH1 0x0 DUP1 REVERT JUMPDEST POP PUSH2 0x149 PUSH1 0x4 DUP1 CALLDATASIZE SUB DUP2 ADD SWAP1 PUSH2 0x144 SWAP2 SWAP1 PUSH2 0x44B JUMP JUMPDEST PUSH2 0x3A7 JUMP JUMPDEST PUSH1 0x40 MLOAD PUSH2 0x156 SWAP2 SWAP1 PUSH2 0x4B9 JUMP JUMPDEST PUSH1 0x40 MLOAD DUP1 SWAP2 SUB SWAP1 RETURN JUMPDEST PUSH1 0x0 SLOAD DUP2 JUMP JUMPDEST PUSH1 0x0 DUP1 PUSH20 0x5F4EC3DF9CBD43714FE2740F5E3616155C5B8419 SWAP1 POP DUP1 PUSH20 0xFFFFFFFFFFFFFFFFFFFFFFFFFFFFFFFFFFFFFFFF AND PUSH4 0x54FD4D50 PUSH1 0x40 MLOAD DUP2 PUSH4 0xFFFFFFFF AND PUSH1 0xE0 SHL DUP2 MSTORE PUSH1 0x4 ADD PUSH1 0x20 PUSH1 0x40 MLOAD DUP1 DUP4 SUB DUP2 DUP7 DUP1 EXTCODESIZE ISZERO DUP1 ISZERO PUSH2 0x1C5 JUMPI PUSH1 0x0 DUP1 REVERT JUMPDEST POP GAS STATICCALL ISZERO DUP1 ISZERO PUSH2 0x1D9 JUMPI RETURNDATASIZE PUSH1 0x0 DUP1 RETURNDATACOPY RETURNDATASIZE PUSH1 0x0 REVERT JUMPDEST POP POP POP POP PUSH1 0x40 MLOAD RETURNDATASIZE PUSH1 0x1F NOT PUSH1 0x1F DUP3 ADD AND DUP3 ADD DUP1 PUSH1 0x40 MSTORE POP DUP2 ADD SWAP1 PUSH2 0x1FD SWAP2 SWAP1 PUSH2 0x4E9 JUMP JUMPDEST SWAP2 POP POP SWAP1 JUMP JUMPDEST PUSH1 0x0 DUP1 PUSH2 0x20E PUSH2 0x23D JUMP JUMPDEST SWAP1 POP PUSH1 0x0 PUSH8 0xDE0B6B3A7640000 DUP5 DUP4 PUSH2 0x227 SWAP2 SWAP1 PUSH2 0x545 JUMP JUMPDEST PUSH2 0x231 SWAP2 SWAP1 PUSH2 0x5CE JUMP JUMPDEST SWAP1 POP DUP1 SWAP3 POP POP POP SWAP2 SWAP1 POP JUMP JUMPDEST PUSH1 0x0 DUP1 PUSH20 0x5F4EC3DF9CBD43714FE2740F5E3616155C5B8419 SWAP1 POP PUSH1 0x0 DUP2 PUSH20 0xFFFFFFFFFFFFFFFFFFFFFFFFFFFFFFFFFFFFFFFF AND PUSH4 0xFEAF968C PUSH1 0x40 MLOAD DUP2 PUSH4 0xFFFFFFFF AND PUSH1 0xE0 SHL DUP2 MSTORE PUSH1 0x4 ADD PUSH1 0xA0 PUSH1 0x40 MLOAD DUP1 DUP4 SUB DUP2 DUP7 DUP1 EXTCODESIZE ISZERO DUP1 ISZERO PUSH2 0x29F JUMPI PUSH1 0x0 DUP1 REVERT JUMPDEST POP GAS STATICCALL ISZERO DUP1 ISZERO PUSH2 0x2B3 JUMPI RETURNDATASIZE PUSH1 0x0 DUP1 RETURNDATACOPY RETURNDATASIZE PUSH1 0x0 REVERT JUMPDEST POP POP POP POP PUSH1 0x40 MLOAD RETURNDATASIZE PUSH1 0x1F NOT PUSH1 0x1F DUP3 ADD AND DUP3 ADD DUP1 PUSH1 0x40 MSTORE POP DUP2 ADD SWAP1 PUSH2 0x2D7 SWAP2 SWAP1 PUSH2 0x677 JUMP JUMPDEST POP POP POP SWAP2 POP POP PUSH5 0x2540BE400 DUP2 PUSH2 0x2EE SWAP2 SWAP1 PUSH2 0x6F2 JUMP JUMPDEST SWAP3 POP POP POP SWAP1 JUMP JUMPDEST PUSH1 0x0 SLOAD PUSH2 0x301 CALLVALUE PUSH2 0x203 JUMP JUMPDEST LT ISZERO PUSH2 0x342 JUMPI PUSH1 0x40 MLOAD PUSH32 0x8C379A000000000000000000000000000000000000000000000000000000000 DUP2 MSTORE PUSH1 0x4 ADD PUSH2 0x339 SWAP1 PUSH2 0x866 JUMP JUMPDEST PUSH1 0x40 MLOAD DUP1 SWAP2 SUB SWAP1 REVERT JUMPDEST PUSH1 0x1 CALLER SWAP1 DUP1 PUSH1 0x1 DUP2 SLOAD ADD DUP1 DUP3 SSTORE DUP1 SWAP2 POP POP PUSH1 0x1 SWAP1 SUB SWAP1 PUSH1 0x0 MSTORE PUSH1 0x20 PUSH1 0x0 KECCAK256 ADD PUSH1 0x0 SWAP1 SWAP2 SWAP1 SWAP2 SWAP1 SWAP2 PUSH2 0x100 EXP DUP2 SLOAD DUP2 PUSH20 0xFFFFFFFFFFFFFFFFFFFFFFFFFFFFFFFFFFFFFFFF MUL NOT AND SWAP1 DUP4 PUSH20 0xFFFFFFFFFFFFFFFFFFFFFFFFFFFFFFFFFFFFFFFF AND MUL OR SWAP1 SSTORE POP JUMP JUMPDEST PUSH1 0x1 DUP2 DUP2 SLOAD DUP2 LT PUSH2 0x3B7 JUMPI PUSH1 0x0 DUP1 REVERT JUMPDEST SWAP1 PUSH1 0x0 MSTORE PUSH1 0x20 PUSH1 0x0 KECCAK256 ADD PUSH1 0x0 SWAP2 POP SLOAD SWAP1 PUSH2 0x100 EXP SWAP1 DIV PUSH20 0xFFFFFFFFFFFFFFFFFFFFFFFFFFFFFFFFFFFFFFFF AND DUP2 JUMP JUMPDEST PUSH1 0x0 DUP2 SWAP1 POP SWAP2 SWAP1 POP JUMP JUMPDEST PUSH2 0x3F9 DUP2 PUSH2 0x3E6 JUMP JUMPDEST DUP3 MSTORE POP POP JUMP JUMPDEST PUSH1 0x0 PUSH1 0x20 DUP3 ADD SWAP1 POP PUSH2 0x414 PUSH1 0x0 DUP4 ADD DUP5 PUSH2 0x3F0 JUMP JUMPDEST SWAP3 SWAP2 POP POP JUMP JUMPDEST PUSH1 0x0 DUP1 REVERT JUMPDEST PUSH2 0x428 DUP2 PUSH2 0x3E6 JUMP JUMPDEST DUP2 EQ PUSH2 0x433 JUMPI PUSH1 0x0 DUP1 REVERT JUMPDEST POP JUMP JUMPDEST PUSH1 0x0 DUP2 CALLDATALOAD SWAP1 POP PUSH2 0x445 DUP2 PUSH2 0x41F JUMP JUMPDEST SWAP3 SWAP2 POP POP JUMP JUMPDEST PUSH1 0x0 PUSH1 0x20 DUP3 DUP5 SUB SLT ISZERO PUSH2 0x461 JUMPI PUSH2 0x460 PUSH2 0x41A JUMP JUMPDEST JUMPDEST PUSH1 0x0 PUSH2 0x46F DUP5 DUP3 DUP6 ADD PUSH2 0x436 JUMP JUMPDEST SWAP2 POP POP SWAP3 SWAP2 POP POP JUMP JUMPDEST PUSH1 0x0 PUSH20 0xFFFFFFFFFFFFFFFFFFFFFFFFFFFFFFFFFFFFFFFF DUP3 AND SWAP1 POP SWAP2 SWAP1 POP JUMP JUMPDEST PUSH1 0x0 PUSH2 0x4A3 DUP3 PUSH2 0x478 JUMP JUMPDEST SWAP1 POP SWAP2 SWAP1 POP JUMP JUMPDEST PUSH2 0x4B3 DUP2 PUSH2 0x498 JUMP JUMPDEST DUP3 MSTORE POP POP JUMP JUMPDEST PUSH1 0x0 PUSH1 0x20 DUP3 ADD SWAP1 POP PUSH2 0x4CE PUSH1 0x0 DUP4 ADD DUP5 PUSH2 0x4AA JUMP JUMPDEST SWAP3 SWAP2 POP POP JUMP JUMPDEST PUSH1 0x0 DUP2 MLOAD SWAP1 POP PUSH2 0x4E3 DUP2 PUSH2 0x41F JUMP JUMPDEST SWAP3 SWAP2 POP POP JUMP JUMPDEST PUSH1 0x0 PUSH1 0x20 DUP3 DUP5 SUB SLT ISZERO PUSH2 0x4FF JUMPI PUSH2 0x4FE PUSH2 0x41A JUMP JUMPDEST JUMPDEST PUSH1 0x0 PUSH2 0x50D DUP5 DUP3 DUP6 ADD PUSH2 0x4D4 JUMP JUMPDEST SWAP2 POP POP SWAP3 SWAP2 POP POP JUMP JUMPDEST PUSH32 0x4E487B7100000000000000000000000000000000000000000000000000000000 PUSH1 0x0 MSTORE PUSH1 0x11 PUSH1 0x4 MSTORE PUSH1 0x24 PUSH1 0x0 REVERT JUMPDEST PUSH1 0x0 PUSH2 0x550 DUP3 PUSH2 0x3E6 JUMP JUMPDEST SWAP2 POP PUSH2 0x55B DUP4 PUSH2 0x3E6 JUMP JUMPDEST SWAP3 POP DUP2 PUSH32 0xFFFFFFFFFFFFFFFFFFFFFFFFFFFFFFFFFFFFFFFFFFFFFFFFFFFFFFFFFFFFFFFF DIV DUP4 GT DUP3 ISZERO ISZERO AND ISZERO PUSH2 0x594 JUMPI PUSH2 0x593 PUSH2 0x516 JUMP JUMPDEST JUMPDEST DUP3 DUP3 MUL SWAP1 POP SWAP3 SWAP2 POP POP JUMP JUMPDEST PUSH32 0x4E487B7100000000000000000000000000000000000000000000000000000000 PUSH1 0x0 MSTORE PUSH1 0x12 PUSH1 0x4 MSTORE PUSH1 0x24 PUSH1 0x0 REVERT JUMPDEST PUSH1 0x0 PUSH2 0x5D9 DUP3 PUSH2 0x3E6 JUMP JUMPDEST SWAP2 POP PUSH2 0x5E4 DUP4 PUSH2 0x3E6 JUMP JUMPDEST SWAP3 POP DUP3 PUSH2 0x5F4 JUMPI PUSH2 0x5F3 PUSH2 0x59F JUMP JUMPDEST JUMPDEST DUP3 DUP3 DIV SWAP1 POP SWAP3 SWAP2 POP POP JUMP JUMPDEST PUSH1 0x0 PUSH10 0xFFFFFFFFFFFFFFFFFFFF DUP3 AND SWAP1 POP SWAP2 SWAP1 POP JUMP JUMPDEST PUSH2 0x61E DUP2 PUSH2 0x5FF JUMP JUMPDEST DUP2 EQ PUSH2 0x629 JUMPI PUSH1 0x0 DUP1 REVERT JUMPDEST POP JUMP JUMPDEST PUSH1 0x0 DUP2 MLOAD SWAP1 POP PUSH2 0x63B DUP2 PUSH2 0x615 JUMP JUMPDEST SWAP3 SWAP2 POP POP JUMP JUMPDEST PUSH1 0x0 DUP2 SWAP1 POP SWAP2 SWAP1 POP JUMP JUMPDEST PUSH2 0x654 DUP2 PUSH2 0x641 JUMP JUMPDEST DUP2 EQ PUSH2 0x65F JUMPI PUSH1 0x0 DUP1 REVERT JUMPDEST POP JUMP JUMPDEST PUSH1 0x0 DUP2 MLOAD SWAP1 POP PUSH2 0x671 DUP2 PUSH2 0x64B JUMP JUMPDEST SWAP3 SWAP2 POP POP JUMP JUMPDEST PUSH1 0x0 DUP1 PUSH1 0x0 DUP1 PUSH1 0x0 PUSH1 0xA0 DUP7 DUP9 SUB SLT ISZERO PUSH2 0x693 JUMPI PUSH2 0x692 PUSH2 0x41A JUMP JUMPDEST JUMPDEST PUSH1 0x0 PUSH2 0x6A1 DUP9 DUP3 DUP10 ADD PUSH2 0x62C JUMP JUMPDEST SWAP6 POP POP PUSH1 0x20 PUSH2 0x6B2 DUP9 DUP3 DUP10 ADD PUSH2 0x662 JUMP JUMPDEST SWAP5 POP POP PUSH1 0x40 PUSH2 0x6C3 DUP9 DUP3 DUP10 ADD PUSH2 0x4D4 JUMP JUMPDEST SWAP4 POP POP PUSH1 0x60 PUSH2 0x6D4 DUP9 DUP3 DUP10 ADD PUSH2 0x4D4 JUMP JUMPDEST SWAP3 POP POP PUSH1 0x80 PUSH2 0x6E5 DUP9 DUP3 DUP10 ADD PUSH2 0x62C JUMP JUMPDEST SWAP2 POP POP SWAP3 SWAP6 POP SWAP3 SWAP6 SWAP1 SWAP4 POP JUMP JUMPDEST PUSH1 0x0 PUSH2 0x6FD DUP3 PUSH2 0x641 JUMP JUMPDEST SWAP2 POP PUSH2 0x708 DUP4 PUSH2 0x641 JUMP JUMPDEST SWAP3 POP DUP3 PUSH32 0x7FFFFFFFFFFFFFFFFFFFFFFFFFFFFFFFFFFFFFFFFFFFFFFFFFFFFFFFFFFFFFFF DIV DUP3 GT PUSH1 0x0 DUP5 SGT PUSH1 0x0 DUP5 SGT AND AND ISZERO PUSH2 0x747 JUMPI PUSH2 0x746 PUSH2 0x516 JUMP JUMPDEST JUMPDEST DUP2 PUSH32 0x8000000000000000000000000000000000000000000000000000000000000000 SDIV DUP4 SLT PUSH1 0x0 DUP5 SLT PUSH1 0x0 DUP5 SGT AND AND ISZERO PUSH2 0x784 JUMPI PUSH2 0x783 PUSH2 0x516 JUMP JUMPDEST JUMPDEST DUP3 PUSH32 0x8000000000000000000000000000000000000000000000000000000000000000 SDIV DUP3 SLT PUSH1 0x0 DUP5 SGT PUSH1 0x0 DUP5 SLT AND AND ISZERO PUSH2 0x7C1 JUMPI PUSH2 0x7C0 PUSH2 0x516 JUMP JUMPDEST JUMPDEST DUP3 PUSH32 0x7FFFFFFFFFFFFFFFFFFFFFFFFFFFFFFFFFFFFFFFFFFFFFFFFFFFFFFFFFFFFFFF SDIV DUP3 SLT PUSH1 0x0 DUP5 SLT PUSH1 0x0 DUP5 SLT AND AND ISZERO PUSH2 0x7FE JUMPI PUSH2 0x7FD PUSH2 0x516 JUMP JUMPDEST JUMPDEST DUP3 DUP3 MUL SWAP1 POP SWAP3 SWAP2 POP POP JUMP JUMPDEST PUSH1 0x0 DUP3 DUP3 MSTORE PUSH1 0x20 DUP3 ADD SWAP1 POP SWAP3 SWAP2 POP POP JUMP JUMPDEST PUSH32 0x4469646E27742073656E6420656E6F7567680000000000000000000000000000 PUSH1 0x0 DUP3 ADD MSTORE POP JUMP JUMPDEST PUSH1 0x0 PUSH2 0x850 PUSH1 0x12 DUP4 PUSH2 0x809 JUMP JUMPDEST SWAP2 POP PUSH2 0x85B DUP3 PUSH2 0x81A JUMP JUMPDEST PUSH1 0x20 DUP3 ADD SWAP1 POP SWAP2 SWAP1 POP JUMP JUMPDEST PUSH1 0x0 PUSH1 0x20 DUP3 ADD SWAP1 POP DUP2 DUP2 SUB PUSH1 0x0 DUP4 ADD MSTORE PUSH2 0x87F DUP2 PUSH2 0x843 JUMP JUMPDEST SWAP1 POP SWAP2 SWAP1 POP JUMP INVALID LOG2 PUSH5 0x6970667358 0x22 SLT KECCAK256 SWAP16 PUSH24 0xDCA5B2C558B4BC08EFFA3B5F3019C15C04C5D3DF08ADA75D SWAP8 0xB2 LT 0xE4 SWAP6 0xC PUSH5 0x736F6C6343 STOP ADDMOD ADDMOD STOP CALLER "
				},
				"gasEstimates": {
					"creation": {
						"codeDepositCost": "447200",
						"executionCost": "22586",
						"totalCost": "469786"
					},
					"external": {
						"fund()": "infinite",
						"funders(uint256)": "5044",
						"getConversionRate(uint256)": "infinite",
						"getPrice()": "infinite",
						"getVersion()": "infinite",
						"minimumUsd()": "2407"
					}
				},
				"methodIdentifiers": {
					"fund()": "b60d4288",
					"funders(uint256)": "dc0d3dff",
					"getConversionRate(uint256)": "6e5b6b28",
					"getPrice()": "98d5fdca",
					"getVersion()": "0d8e6e2c",
					"minimumUsd()": "098de820"
				}
			},
			"storageLayout": {
				"storage": [
					{
						"astId": 53,
						"contract": "contracts/FundMe.sol:FundMe",
						"label": "minimumUsd",
						"offset": 0,
						"slot": "0",
						"type": "t_uint256"
					},
					{
						"astId": 56,
						"contract": "contracts/FundMe.sol:FundMe",
						"label": "funders",
						"offset": 0,
						"slot": "1",
						"type": "t_array(t_address)dyn_storage"
					}
				],
				"types": {
					"t_address": {
						"encoding": "inplace",
						"label": "address",
						"numberOfBytes": "20"
					},
					"t_array(t_address)dyn_storage": {
						"base": "t_address",
						"encoding": "dynamic_array",
						"label": "address[]",
						"numberOfBytes": "32"
					},
					"t_uint256": {
						"encoding": "inplace",
						"label": "uint256",
						"numberOfBytes": "32"
					}
				}
			},
			"userdoc": {
				"kind": "user",
				"methods": {},
				"version": 1
			}
		}
	}
}